{
  "_format": "hh-sol-artifact-1",
  "contractName": "BlockCart",
  "sourceName": "contracts/BlockCart.sol",
  "abi": [
    {
      "inputs": [],
      "stateMutability": "nonpayable",
      "type": "constructor"
    },
    {
      "anonymous": false,
      "inputs": [
        {
          "indexed": true,
          "internalType": "string",
          "name": "_name",
          "type": "string"
        },
        {
          "indexed": false,
          "internalType": "string",
          "name": "_email",
          "type": "string"
        },
        {
          "indexed": false,
          "internalType": "string",
          "name": "_mailingAddress",
          "type": "string"
        }
      ],
      "name": "NewBuyer",
      "type": "event"
    },
    {
      "anonymous": false,
      "inputs": [
        {
          "indexed": true,
          "internalType": "uint256",
          "name": "_orderID",
          "type": "uint256"
        },
        {
          "indexed": false,
          "internalType": "uint256",
          "name": "_ID",
          "type": "uint256"
        },
        {
          "indexed": false,
          "internalType": "uint256",
          "name": "_quantity",
          "type": "uint256"
        },
        {
          "indexed": false,
          "internalType": "address",
          "name": "_from",
          "type": "address"
        }
      ],
      "name": "NewOrder",
      "type": "event"
    },
    {
      "anonymous": false,
      "inputs": [
        {
          "indexed": true,
          "internalType": "uint256",
          "name": "_ID",
          "type": "uint256"
        },
        {
          "indexed": false,
          "internalType": "string",
          "name": "_name",
          "type": "string"
        },
        {
          "indexed": false,
          "internalType": "uint256",
          "name": "_inventory",
          "type": "uint256"
        },
        {
          "indexed": false,
          "internalType": "uint256",
          "name": "_price",
          "type": "uint256"
        }
      ],
      "name": "NewProduct",
      "type": "event"
    },
    {
      "inputs": [
        {
          "internalType": "uint256",
          "name": "_ID",
          "type": "uint256"
        },
        {
          "internalType": "string",
          "name": "_name",
          "type": "string"
        },
        {
          "internalType": "uint256",
          "name": "_inventory",
          "type": "uint256"
        },
        {
          "internalType": "uint256",
          "name": "_price",
          "type": "uint256"
        }
      ],
      "name": "addProduct",
      "outputs": [],
      "stateMutability": "nonpayable",
      "type": "function"
    },
    {
      "inputs": [
        {
          "internalType": "uint256",
          "name": "_ID",
          "type": "uint256"
        },
        {
          "internalType": "uint256",
          "name": "_quantity",
          "type": "uint256"
        }
      ],
      "name": "buyProduct",
      "outputs": [
        {
          "internalType": "uint256",
          "name": "newOrderID",
          "type": "uint256"
        }
      ],
      "stateMutability": "payable",
      "type": "function"
    },
    {
      "inputs": [
        {
          "internalType": "address",
          "name": "",
          "type": "address"
        }
      ],
      "name": "buyers",
      "outputs": [
        {
          "internalType": "string",
          "name": "name",
          "type": "string"
        },
        {
          "internalType": "string",
          "name": "email",
          "type": "string"
        },
        {
          "internalType": "string",
          "name": "mailingAddress",
          "type": "string"
        },
        {
          "internalType": "uint256",
          "name": "totalOrders",
          "type": "uint256"
        },
        {
          "internalType": "bool",
          "name": "isActive",
          "type": "bool"
        },
        {
          "internalType": "uint256",
          "name": "amountPaid",
          "type": "uint256"
        }
      ],
      "stateMutability": "view",
      "type": "function"
    },
    {
      "inputs": [
        {
          "internalType": "address",
          "name": "buyer",
          "type": "address"
        }
      ],
      "name": "getBuyerAmountPaid",
      "outputs": [
        {
          "internalType": "uint256",
          "name": "",
          "type": "uint256"
        }
      ],
      "stateMutability": "view",
      "type": "function"
    },
    {
      "inputs": [],
      "name": "isActive",
      "outputs": [
        {
          "internalType": "bool",
          "name": "",
          "type": "bool"
        }
      ],
      "stateMutability": "view",
      "type": "function"
    },
    {
      "inputs": [],
      "name": "kill",
      "outputs": [],
      "stateMutability": "nonpayable",
      "type": "function"
    },
    {
      "inputs": [],
      "name": "numBuyers",
      "outputs": [
        {
          "internalType": "uint256",
          "name": "",
          "type": "uint256"
        }
      ],
      "stateMutability": "view",
      "type": "function"
    },
    {
      "inputs": [],
      "name": "numProducts",
      "outputs": [
        {
          "internalType": "uint256",
          "name": "",
          "type": "uint256"
        }
      ],
      "stateMutability": "view",
      "type": "function"
    },
    {
      "inputs": [],
      "name": "number",
      "outputs": [
        {
          "internalType": "uint256",
          "name": "",
          "type": "uint256"
        }
      ],
      "stateMutability": "view",
      "type": "function"
    },
    {
      "inputs": [
        {
          "internalType": "uint256",
          "name": "",
          "type": "uint256"
        }
      ],
      "name": "orders",
      "outputs": [
        {
          "internalType": "uint256",
          "name": "orderID",
          "type": "uint256"
        },
        {
          "internalType": "uint256",
          "name": "productId",
          "type": "uint256"
        },
        {
          "internalType": "uint256",
          "name": "quantity",
          "type": "uint256"
        },
        {
          "internalType": "address",
          "name": "buyer",
          "type": "address"
        }
      ],
      "stateMutability": "view",
      "type": "function"
    },
    {
      "inputs": [],
      "name": "owner",
      "outputs": [
        {
          "internalType": "address",
          "name": "",
          "type": "address"
        }
      ],
      "stateMutability": "view",
      "type": "function"
    },
    {
      "inputs": [
        {
          "internalType": "uint256",
          "name": "",
          "type": "uint256"
        }
      ],
      "name": "products",
      "outputs": [
        {
          "internalType": "uint256",
          "name": "ID",
          "type": "uint256"
        },
        {
          "internalType": "string",
          "name": "name",
          "type": "string"
        },
        {
          "internalType": "uint256",
          "name": "inventory",
          "type": "uint256"
        },
        {
          "internalType": "uint256",
          "name": "price",
          "type": "uint256"
        }
      ],
      "stateMutability": "view",
      "type": "function"
    },
    {
      "inputs": [
        {
          "internalType": "string",
          "name": "_name",
          "type": "string"
        },
        {
          "internalType": "string",
          "name": "_email",
          "type": "string"
        },
        {
          "internalType": "string",
          "name": "_mailingAddress",
          "type": "string"
        }
      ],
      "name": "registerBuyer",
      "outputs": [],
      "stateMutability": "nonpayable",
      "type": "function"
    },
    {
      "inputs": [
        {
          "internalType": "uint256",
          "name": "_ID",
          "type": "uint256"
        },
        {
          "internalType": "string",
          "name": "_name",
          "type": "string"
        },
        {
          "internalType": "uint256",
          "name": "_inventory",
          "type": "uint256"
        },
        {
          "internalType": "uint256",
          "name": "_price",
          "type": "uint256"
        }
      ],
      "name": "updateProduct",
      "outputs": [],
      "stateMutability": "nonpayable",
      "type": "function"
    },
    {
      "inputs": [],
      "name": "withdrawFunds",
      "outputs": [],
      "stateMutability": "nonpayable",
      "type": "function"
    }
  ],
  "bytecode": "0x608060405234801561001057600080fd5b50336000806101000a81548173ffffffffffffffffffffffffffffffffffffffff021916908373ffffffffffffffffffffffffffffffffffffffff160217905550600060018190555060006002819055506001600460006101000a81548160ff0219169083151502179055506125918061008b6000396000f3fe6080604052600436106100e85760003560e01c80637acc0b201161008a578063a85c38ef11610059578063a85c38ef146102cb578063ac964f211461030b578063c27ed2a214610336578063d0a6160b1461035f576100e8565b80637acc0b20146101f35780638381f58a146102335780638da5cb5b1461025e57806397a993aa14610289576100e8565b80632d561787116100c65780632d561787146101585780633e9199801461018157806341c0e1b5146101ac57806353b62866146101c3576100e8565b80631408910a146100ed57806322f3e2d41461011657806324600fc314610141575b600080fd5b3480156100f957600080fd5b50610114600480360381019061010f919061164e565b61039c565b005b34801561012257600080fd5b5061012b6105d2565b6040516101389190611710565b60405180910390f35b34801561014d57600080fd5b506101566105e5565b005b34801561016457600080fd5b5061017f600480360381019061017a9190611761565b6106dc565b005b34801561018d57600080fd5b506101966108b5565b6040516101a391906117f3565b60405180910390f35b3480156101b857600080fd5b506101c16108bb565b005b6101dd60048036038101906101d8919061180e565b61096e565b6040516101ea91906117f3565b60405180910390f35b3480156101ff57600080fd5b5061021a6004803603810190610215919061184e565b610f50565b60405161022a94939291906118fa565b60405180910390f35b34801561023f57600080fd5b50610248611008565b60405161025591906117f3565b60405180910390f35b34801561026a57600080fd5b5061027361100e565b6040516102809190611987565b60405180910390f35b34801561029557600080fd5b506102b060048036038101906102ab91906119ce565b611032565b6040516102c2969594939291906119fb565b60405180910390f35b3480156102d757600080fd5b506102f260048036038101906102ed919061184e565b611213565b6040516103029493929190611a71565b60405180910390f35b34801561031757600080fd5b50610320611263565b60405161032d91906117f3565b60405180910390f35b34801561034257600080fd5b5061035d60048036038101906103589190611761565b611269565b005b34801561036b57600080fd5b50610386600480360381019061038191906119ce565b6114a8565b60405161039391906117f3565b60405180910390f35b600460009054906101000a900460ff166103eb576040517f08c379a00000000000000000000000000000000000000000000000000000000081526004016103e290611b02565b60405180910390fd5b6000600660003373ffffffffffffffffffffffffffffffffffffffff1673ffffffffffffffffffffffffffffffffffffffff168152602001908152602001600020600101805461043a90611b51565b90501461047c576040517f08c379a000000000000000000000000000000000000000000000000000000000815260040161047390611bce565b60405180910390fd5b6040518060c00160405280848152602001838152602001828152602001600081526020016001151581526020016000815250600660003373ffffffffffffffffffffffffffffffffffffffff1673ffffffffffffffffffffffffffffffffffffffff16815260200190815260200160002060008201518160000190816105029190611d9a565b5060208201518160010190816105189190611d9a565b50604082015181600201908161052e9190611d9a565b506060820151816003015560808201518160040160006101000a81548160ff02191690831515021790555060a082015181600501559050506001600081548092919061057990611e9b565b91905055508260405161058c9190611f1f565b60405180910390207f624f4304fbf516a2b116d55552f131a80ee97de17d19c4f9896100a1a0efca6e83836040516105c5929190611f36565b60405180910390a2505050565b600460009054906101000a900460ff1681565b60008054906101000a900473ffffffffffffffffffffffffffffffffffffffff1673ffffffffffffffffffffffffffffffffffffffff163373ffffffffffffffffffffffffffffffffffffffff1614610673576040517f08c379a000000000000000000000000000000000000000000000000000000000815260040161066a90611fdf565b60405180910390fd5b60008054906101000a900473ffffffffffffffffffffffffffffffffffffffff1673ffffffffffffffffffffffffffffffffffffffff166108fc479081150290604051600060405180830381858888f193505050501580156106d9573d6000803e3d6000fd5b50565b60008054906101000a900473ffffffffffffffffffffffffffffffffffffffff1673ffffffffffffffffffffffffffffffffffffffff163373ffffffffffffffffffffffffffffffffffffffff161461076a576040517f08c379a000000000000000000000000000000000000000000000000000000000815260040161076190611fdf565b60405180910390fd5b600460009054906101000a900460ff166107b9576040517f08c379a00000000000000000000000000000000000000000000000000000000081526004016107b090611b02565b60405180910390fd5b83600560008681526020019081526020016000206000015414610811576040517f08c379a00000000000000000000000000000000000000000000000000000000081526004016108089061204b565b60405180910390fd5b6000835111610855576040517f08c379a000000000000000000000000000000000000000000000000000000000815260040161084c906120b7565b60405180910390fd5b826005600086815260200190815260200160002060010190816108789190611d9a565b5081600560008681526020019081526020016000206002018190555080600560008681526020019081526020016000206003018190555050505050565b60015481565b60008054906101000a900473ffffffffffffffffffffffffffffffffffffffff1673ffffffffffffffffffffffffffffffffffffffff163373ffffffffffffffffffffffffffffffffffffffff1614610949576040517f08c379a000000000000000000000000000000000000000000000000000000000815260040161094090611fdf565b60405180910390fd5b6000600460006101000a81548160ff02191690831515021790555061096c6105e5565b565b600080600660003373ffffffffffffffffffffffffffffffffffffffff1673ffffffffffffffffffffffffffffffffffffffff16815260200190815260200160002060010180546109be90611b51565b905011610a00576040517f08c379a00000000000000000000000000000000000000000000000000000000081526004016109f790612123565b60405180910390fd5b600660003373ffffffffffffffffffffffffffffffffffffffff1673ffffffffffffffffffffffffffffffffffffffff16815260200190815260200160002060040160009054906101000a900460ff16610a8f576040517f08c379a0000000000000000000000000000000000000000000000000000000008152600401610a869061218f565b60405180910390fd5b600460009054906101000a900460ff16610ade576040517f08c379a0000000000000000000000000000000000000000000000000000000008152600401610ad590611b02565b60405180910390fd5b60006005600085815260200190815260200160002060405180608001604052908160008201548152602001600182018054610b1890611b51565b80601f0160208091040260200160405190810160405280929190818152602001828054610b4490611b51565b8015610b915780601f10610b6657610100808354040283529160200191610b91565b820191906000526020600020905b815481529060010190602001808311610b7457829003601f168201915b5050505050815260200160028201548152602001600382015481525050905083816000015114610bf6576040517f08c379a0000000000000000000000000000000000000000000000000000000008152600401610bed9061204b565b60405180910390fd5b60008311610c39576040517f08c379a0000000000000000000000000000000000000000000000000000000008152600401610c30906121fb565b60405180910390fd5b8060400151831115610c80576040517f08c379a0000000000000000000000000000000000000000000000000000000008152600401610c7790612267565b60405180910390fd5b6000816060015184610c929190612287565b905080341015610cd7576040517f08c379a0000000000000000000000000000000000000000000000000000000008152600401610cce90612315565b60405180910390fd5b83600560008781526020019081526020016000206002016000828254610cfd9190612335565b9250508190555033858542604051602001610d1b94939291906123d2565b6040516020818303038152906040528051906020012060001c925060405180608001604052808481526020018681526020018581526020013373ffffffffffffffffffffffffffffffffffffffff168152506007600085815260200190815260200160002060008201518160000155602082015181600101556040820151816002015560608201518160030160006101000a81548173ffffffffffffffffffffffffffffffffffffffff021916908373ffffffffffffffffffffffffffffffffffffffff16021790555090505080600660003373ffffffffffffffffffffffffffffffffffffffff1673ffffffffffffffffffffffffffffffffffffffff1681526020019081526020016000206005016000828254610e3a9190612420565b92505081905550600660003373ffffffffffffffffffffffffffffffffffffffff1673ffffffffffffffffffffffffffffffffffffffff1681526020019081526020016000206003016000815480929190610e9490611e9b565b919050555060036000815480929190610eac90611e9b565b919050555080341115610f0c573373ffffffffffffffffffffffffffffffffffffffff166108fc8234610edf9190612335565b9081150290604051600060405180830381858888f19350505050158015610f0a573d6000803e3d6000fd5b505b827fc0515c0f5c01028de590be660f9c27c6be164508c1a41a818bba6b9ad7364951868633604051610f4093929190612454565b60405180910390a2505092915050565b6005602052806000526040600020600091509050806000015490806001018054610f7990611b51565b80601f0160208091040260200160405190810160405280929190818152602001828054610fa590611b51565b8015610ff25780601f10610fc757610100808354040283529160200191610ff2565b820191906000526020600020905b815481529060010190602001808311610fd557829003601f168201915b5050505050908060020154908060030154905084565b60035481565b60008054906101000a900473ffffffffffffffffffffffffffffffffffffffff1681565b600660205280600052604060002060009150905080600001805461105590611b51565b80601f016020809104026020016040519081016040528092919081815260200182805461108190611b51565b80156110ce5780601f106110a3576101008083540402835291602001916110ce565b820191906000526020600020905b8154815290600101906020018083116110b157829003601f168201915b5050505050908060010180546110e390611b51565b80601f016020809104026020016040519081016040528092919081815260200182805461110f90611b51565b801561115c5780601f106111315761010080835404028352916020019161115c565b820191906000526020600020905b81548152906001019060200180831161113f57829003601f168201915b50505050509080600201805461117190611b51565b80601f016020809104026020016040519081016040528092919081815260200182805461119d90611b51565b80156111ea5780601f106111bf576101008083540402835291602001916111ea565b820191906000526020600020905b8154815290600101906020018083116111cd57829003601f168201915b5050505050908060030154908060040160009054906101000a900460ff16908060050154905086565b60076020528060005260406000206000915090508060000154908060010154908060020154908060030160009054906101000a900473ffffffffffffffffffffffffffffffffffffffff16905084565b60025481565b60008054906101000a900473ffffffffffffffffffffffffffffffffffffffff1673ffffffffffffffffffffffffffffffffffffffff163373ffffffffffffffffffffffffffffffffffffffff16146112f7576040517f08c379a00000000000000000000000000000000000000000000000000000000081526004016112ee90611fdf565b60405180910390fd5b600460009054906101000a900460ff16611346576040517f08c379a000000000000000000000000000000000000000000000000000000000815260040161133d90611b02565b60405180910390fd5b600060056000868152602001908152602001600020600001541461139f576040517f08c379a0000000000000000000000000000000000000000000000000000000008152600401611396906124fd565b60405180910390fd5b60008351116113e3576040517f08c379a00000000000000000000000000000000000000000000000000000000081526004016113da906120b7565b60405180910390fd5b604051806080016040528085815260200184815260200183815260200182815250600560008681526020019081526020016000206000820151816000015560208201518160010190816114369190611d9a565b5060408201518160020155606082015181600301559050506002600081548092919061146190611e9b565b9190505550837f91803d48f0a59c22fbdeb3634be1b35be19861fed5e4ecf7cd46877b06a2ae1b84848460405161149a9392919061251d565b60405180910390a250505050565b6000600660008373ffffffffffffffffffffffffffffffffffffffff1673ffffffffffffffffffffffffffffffffffffffff168152602001908152602001600020600501549050919050565b6000604051905090565b600080fd5b600080fd5b600080fd5b600080fd5b6000601f19601f8301169050919050565b7f4e487b7100000000000000000000000000000000000000000000000000000000600052604160045260246000fd5b61155b82611512565b810181811067ffffffffffffffff8211171561157a57611579611523565b5b80604052505050565b600061158d6114f4565b90506115998282611552565b919050565b600067ffffffffffffffff8211156115b9576115b8611523565b5b6115c282611512565b9050602081019050919050565b82818337600083830152505050565b60006115f16115ec8461159e565b611583565b90508281526020810184848401111561160d5761160c61150d565b5b6116188482856115cf565b509392505050565b600082601f83011261163557611634611508565b5b81356116458482602086016115de565b91505092915050565b600080600060608486031215611667576116666114fe565b5b600084013567ffffffffffffffff81111561168557611684611503565b5b61169186828701611620565b935050602084013567ffffffffffffffff8111156116b2576116b1611503565b5b6116be86828701611620565b925050604084013567ffffffffffffffff8111156116df576116de611503565b5b6116eb86828701611620565b9150509250925092565b60008115159050919050565b61170a816116f5565b82525050565b60006020820190506117256000830184611701565b92915050565b6000819050919050565b61173e8161172b565b811461174957600080fd5b50565b60008135905061175b81611735565b92915050565b6000806000806080858703121561177b5761177a6114fe565b5b60006117898782880161174c565b945050602085013567ffffffffffffffff8111156117aa576117a9611503565b5b6117b687828801611620565b93505060406117c78782880161174c565b92505060606117d88782880161174c565b91505092959194509250565b6117ed8161172b565b82525050565b600060208201905061180860008301846117e4565b92915050565b60008060408385031215611825576118246114fe565b5b60006118338582860161174c565b92505060206118448582860161174c565b9150509250929050565b600060208284031215611864576118636114fe565b5b60006118728482850161174c565b91505092915050565b600081519050919050565b600082825260208201905092915050565b60005b838110156118b557808201518184015260208101905061189a565b60008484015250505050565b60006118cc8261187b565b6118d68185611886565b93506118e6818560208601611897565b6118ef81611512565b840191505092915050565b600060808201905061190f60008301876117e4565b818103602083015261192181866118c1565b905061193060408301856117e4565b61193d60608301846117e4565b95945050505050565b600073ffffffffffffffffffffffffffffffffffffffff82169050919050565b600061197182611946565b9050919050565b61198181611966565b82525050565b600060208201905061199c6000830184611978565b92915050565b6119ab81611966565b81146119b657600080fd5b50565b6000813590506119c8816119a2565b92915050565b6000602082840312156119e4576119e36114fe565b5b60006119f2848285016119b9565b91505092915050565b600060c0820190508181036000830152611a1581896118c1565b90508181036020830152611a2981886118c1565b90508181036040830152611a3d81876118c1565b9050611a4c60608301866117e4565b611a596080830185611701565b611a6660a08301846117e4565b979650505050505050565b6000608082019050611a8660008301876117e4565b611a9360208301866117e4565b611aa060408301856117e4565b611aad6060830184611978565b95945050505050565b7f436f6e7472616374206973206e6f742061637469766500000000000000000000600082015250565b6000611aec601683611886565b9150611af782611ab6565b602082019050919050565b60006020820190508181036000830152611b1b81611adf565b9050919050565b7f4e487b7100000000000000000000000000000000000000000000000000000000600052602260045260246000fd5b60006002820490506001821680611b6957607f821691505b602082108103611b7c57611b7b611b22565b5b50919050565b7f427579657220616c726561647920726567697374657265640000000000000000600082015250565b6000611bb8601883611886565b9150611bc382611b82565b602082019050919050565b60006020820190508181036000830152611be781611bab565b9050919050565b60008190508160005260206000209050919050565b60006020601f8301049050919050565b600082821b905092915050565b600060088302611c507fffffffffffffffffffffffffffffffffffffffffffffffffffffffffffffffff82611c13565b611c5a8683611c13565b95508019841693508086168417925050509392505050565b6000819050919050565b6000611c97611c92611c8d8461172b565b611c72565b61172b565b9050919050565b6000819050919050565b611cb183611c7c565b611cc5611cbd82611c9e565b848454611c20565b825550505050565b600090565b611cda611ccd565b611ce5818484611ca8565b505050565b5b81811015611d0957611cfe600082611cd2565b600181019050611ceb565b5050565b601f821115611d4e57611d1f81611bee565b611d2884611c03565b81016020851015611d37578190505b611d4b611d4385611c03565b830182611cea565b50505b505050565b600082821c905092915050565b6000611d7160001984600802611d53565b1980831691505092915050565b6000611d8a8383611d60565b9150826002028217905092915050565b611da38261187b565b67ffffffffffffffff811115611dbc57611dbb611523565b5b611dc68254611b51565b611dd1828285611d0d565b600060209050601f831160018114611e045760008415611df2578287015190505b611dfc8582611d7e565b865550611e64565b601f198416611e1286611bee565b60005b82811015611e3a57848901518255600182019150602085019450602081019050611e15565b86831015611e575784890151611e53601f891682611d60565b8355505b6001600288020188555050505b505050505050565b7f4e487b7100000000000000000000000000000000000000000000000000000000600052601160045260246000fd5b6000611ea68261172b565b91507fffffffffffffffffffffffffffffffffffffffffffffffffffffffffffffffff8203611ed857611ed7611e6c565b5b600182019050919050565b600081905092915050565b6000611ef98261187b565b611f038185611ee3565b9350611f13818560208601611897565b80840191505092915050565b6000611f2b8284611eee565b915081905092915050565b60006040820190508181036000830152611f5081856118c1565b90508181036020830152611f6481846118c1565b90509392505050565b7f4f6e6c79206f776e65722063616e2063616c6c20746869732066756e6374696f60008201527f6e00000000000000000000000000000000000000000000000000000000000000602082015250565b6000611fc9602183611886565b9150611fd482611f6d565b604082019050919050565b60006020820190508181036000830152611ff881611fbc565b9050919050565b7f50726f64756374206e6f7420666f756e64000000000000000000000000000000600082015250565b6000612035601183611886565b915061204082611fff565b602082019050919050565b6000602082019050818103600083015261206481612028565b9050919050565b7f50726f64756374206e616d652063616e6e6f7420626520656d70747900000000600082015250565b60006120a1601c83611886565b91506120ac8261206b565b602082019050919050565b600060208201905081810360008301526120d081612094565b9050919050565b7f4275796572206e6f742072656769737465726564000000000000000000000000600082015250565b600061210d601483611886565b9150612118826120d7565b602082019050919050565b6000602082019050818103600083015261213c81612100565b9050919050565b7f427579657220697320696e616374697665000000000000000000000000000000600082015250565b6000612179601183611886565b915061218482612143565b602082019050919050565b600060208201905081810360008301526121a88161216c565b9050919050565b7f496e76616c6964207175616e7469747900000000000000000000000000000000600082015250565b60006121e5601083611886565b91506121f0826121af565b602082019050919050565b60006020820190508181036000830152612214816121d8565b9050919050565b7f496e73756666696369656e7420696e76656e746f727900000000000000000000600082015250565b6000612251601683611886565b915061225c8261221b565b602082019050919050565b6000602082019050818103600083015261228081612244565b9050919050565b60006122928261172b565b915061229d8361172b565b92508282026122ab8161172b565b915082820484148315176122c2576122c1611e6c565b5b5092915050565b7f496e73756666696369656e74207061796d656e74000000000000000000000000600082015250565b60006122ff601483611886565b915061230a826122c9565b602082019050919050565b6000602082019050818103600083015261232e816122f2565b9050919050565b60006123408261172b565b915061234b8361172b565b925082820390508181111561236357612362611e6c565b5b92915050565b60008160601b9050919050565b600061238182612369565b9050919050565b600061239382612376565b9050919050565b6123ab6123a682611966565b612388565b82525050565b6000819050919050565b6123cc6123c78261172b565b6123b1565b82525050565b60006123de828761239a565b6014820191506123ee82866123bb565b6020820191506123fe82856123bb565b60208201915061240e82846123bb565b60208201915081905095945050505050565b600061242b8261172b565b91506124368361172b565b925082820190508082111561244e5761244d611e6c565b5b92915050565b600060608201905061246960008301866117e4565b61247660208301856117e4565b6124836040830184611978565b949350505050565b7f50726f647563742077697468207468697320494420616c72656164792065786960008201527f7374730000000000000000000000000000000000000000000000000000000000602082015250565b60006124e7602383611886565b91506124f28261248b565b604082019050919050565b60006020820190508181036000830152612516816124da565b9050919050565b6000606082019050818103600083015261253781866118c1565b905061254660208301856117e4565b61255360408301846117e4565b94935050505056fea2646970667358221220bfcb897df65f35c9d3b1aa2a350221adbdf2ae5d7fbe55d568b00794d9d6567164736f6c63430008130033",
  "linkReferences": {},
  "deployedLinkReferences": {}
}